{"abi":[{"type":"function","name":"collateralInfo","inputs":[{"name":"comet","type":"address","internalType":"contract Comet"},{"name":"index","type":"uint8","internalType":"uint8"},{"name":"checkDeprecatedwUSDM","type":"bool","internalType":"bool"}],"outputs":[{"name":"","type":"tuple","internalType":"struct CometQuery.CollateralAsset","components":[{"name":"collateralAsset","type":"address","internalType":"address"},{"name":"collateralFactor","type":"uint256","internalType":"uint256"},{"name":"decimals","type":"uint256","internalType":"uint256"},{"name":"name","type":"string","internalType":"string"},{"name":"liquidateCollateralFactor","type":"uint256","internalType":"uint256"},{"name":"liquidationFactor","type":"uint256","internalType":"uint256"},{"name":"price","type":"uint256","internalType":"uint256"},{"name":"priceFeed","type":"address","internalType":"address"},{"name":"supplyCap","type":"uint256","internalType":"uint256"},{"name":"symbol","type":"string","internalType":"string"},{"name":"totalSupply","type":"uint256","internalType":"uint256"}]}],"stateMutability":"view"},{"type":"function","name":"collateralInfoWithAccount","inputs":[{"name":"comet","type":"address","internalType":"contract Comet"},{"name":"bulker","type":"address","internalType":"address payable"},{"name":"asset","type":"tuple","internalType":"struct CometQuery.CollateralAsset","components":[{"name":"collateralAsset","type":"address","internalType":"address"},{"name":"collateralFactor","type":"uint256","internalType":"uint256"},{"name":"decimals","type":"uint256","internalType":"uint256"},{"name":"name","type":"string","internalType":"string"},{"name":"liquidateCollateralFactor","type":"uint256","internalType":"uint256"},{"name":"liquidationFactor","type":"uint256","internalType":"uint256"},{"name":"price","type":"uint256","internalType":"uint256"},{"name":"priceFeed","type":"address","internalType":"address"},{"name":"supplyCap","type":"uint256","internalType":"uint256"},{"name":"symbol","type":"string","internalType":"string"},{"name":"totalSupply","type":"uint256","internalType":"uint256"}]},{"name":"account","type":"address","internalType":"address payable"},{"name":"wrappedNativeTokenSymbol","type":"string","internalType":"string"}],"outputs":[{"name":"","type":"tuple","internalType":"struct CometQuery.CollateralAssetWithAccountState","components":[{"name":"collateralAsset","type":"address","internalType":"address"},{"name":"bulkerAllowance","type":"uint256","internalType":"uint256"},{"name":"allowance","type":"uint256","internalType":"uint256"},{"name":"balance","type":"uint256","internalType":"uint256"},{"name":"collateralFactor","type":"uint256","internalType":"uint256"},{"name":"decimals","type":"uint256","internalType":"uint256"},{"name":"name","type":"string","internalType":"string"},{"name":"liquidateCollateralFactor","type":"uint256","internalType":"uint256"},{"name":"liquidationFactor","type":"uint256","internalType":"uint256"},{"name":"price","type":"uint256","internalType":"uint256"},{"name":"priceFeed","type":"address","internalType":"address"},{"name":"supplyCap","type":"uint256","internalType":"uint256"},{"name":"symbol","type":"string","internalType":"string"},{"name":"totalSupply","type":"uint256","internalType":"uint256"},{"name":"walletBalance","type":"uint256","internalType":"uint256"}]}],"stateMutability":"view"},{"type":"function","name":"cometStateMinusCollateralInfo","inputs":[{"name":"comet","type":"address","internalType":"contract Comet"},{"name":"nativeTokenToUsd","type":"address","internalType":"address"}],"outputs":[{"name":"","type":"tuple","internalType":"struct CometQuery.CometStateWithoutCollateralAssets","components":[{"name":"baseAsset","type":"tuple","internalType":"struct CometQuery.BaseAsset","components":[{"name":"baseAsset","type":"address","internalType":"address"},{"name":"balanceOfComet","type":"uint256","internalType":"uint256"},{"name":"decimals","type":"uint256","internalType":"uint256"},{"name":"minBorrow","type":"uint256","internalType":"uint256"},{"name":"name","type":"string","internalType":"string"},{"name":"priceFeed","type":"address","internalType":"address"},{"name":"price","type":"uint256","internalType":"uint256"},{"name":"symbol","type":"string","internalType":"string"}]},{"name":"baseMinForRewards","type":"uint256","internalType":"uint256"},{"name":"baseTrackingBorrowSpeed","type":"uint256","internalType":"uint256"},{"name":"baseTrackingSupplySpeed","type":"uint256","internalType":"uint256"},{"name":"borrowAPR","type":"uint256","internalType":"uint256"},{"name":"earnAPR","type":"uint256","internalType":"uint256"},{"name":"nativeAssetInDollars","type":"uint256","internalType":"uint256"},{"name":"totalBorrow","type":"uint256","internalType":"uint256"},{"name":"totalBorrowPrincipal","type":"uint256","internalType":"uint256"},{"name":"totalSupply","type":"uint256","internalType":"uint256"},{"name":"totalSupplyPrincipal","type":"uint256","internalType":"uint256"},{"name":"trackingIndexScale","type":"uint256","internalType":"uint256"}]}],"stateMutability":"view"},{"type":"function","name":"query","inputs":[{"name":"comet","type":"address","internalType":"contract Comet"},{"name":"nativeTokenToUsd","type":"address","internalType":"address"},{"name":"checkDeprecatedwUSDM","type":"bool","internalType":"bool"}],"outputs":[{"name":"","type":"tuple","internalType":"struct CometQuery.CometState","components":[{"name":"baseAsset","type":"tuple","internalType":"struct CometQuery.BaseAsset","components":[{"name":"baseAsset","type":"address","internalType":"address"},{"name":"balanceOfComet","type":"uint256","internalType":"uint256"},{"name":"decimals","type":"uint256","internalType":"uint256"},{"name":"minBorrow","type":"uint256","internalType":"uint256"},{"name":"name","type":"string","internalType":"string"},{"name":"priceFeed","type":"address","internalType":"address"},{"name":"price","type":"uint256","internalType":"uint256"},{"name":"symbol","type":"string","internalType":"string"}]},{"name":"baseMinForRewards","type":"uint256","internalType":"uint256"},{"name":"baseTrackingBorrowSpeed","type":"uint256","internalType":"uint256"},{"name":"baseTrackingSupplySpeed","type":"uint256","internalType":"uint256"},{"name":"borrowAPR","type":"uint256","internalType":"uint256"},{"name":"collateralAssets","type":"tuple[]","internalType":"struct CometQuery.CollateralAsset[]","components":[{"name":"collateralAsset","type":"address","internalType":"address"},{"name":"collateralFactor","type":"uint256","internalType":"uint256"},{"name":"decimals","type":"uint256","internalType":"uint256"},{"name":"name","type":"string","internalType":"string"},{"name":"liquidateCollateralFactor","type":"uint256","internalType":"uint256"},{"name":"liquidationFactor","type":"uint256","internalType":"uint256"},{"name":"price","type":"uint256","internalType":"uint256"},{"name":"priceFeed","type":"address","internalType":"address"},{"name":"supplyCap","type":"uint256","internalType":"uint256"},{"name":"symbol","type":"string","internalType":"string"},{"name":"totalSupply","type":"uint256","internalType":"uint256"}]},{"name":"earnAPR","type":"uint256","internalType":"uint256"},{"name":"nativeAssetInDollars","type":"uint256","internalType":"uint256"},{"name":"totalBorrow","type":"uint256","internalType":"uint256"},{"name":"totalBorrowPrincipal","type":"uint256","internalType":"uint256"},{"name":"totalSupply","type":"uint256","internalType":"uint256"},{"name":"totalSupplyPrincipal","type":"uint256","internalType":"uint256"},{"name":"trackingIndexScale","type":"uint256","internalType":"uint256"}]}],"stateMutability":"view"},{"type":"function","name":"queryWithAccount","inputs":[{"name":"comet","type":"address","internalType":"contract Comet"},{"name":"nativeTokenToUsd","type":"address","internalType":"address"},{"name":"account","type":"address","internalType":"address payable"},{"name":"bulker","type":"address","internalType":"address payable"},{"name":"wrappedNativeTokenSymbol","type":"string","internalType":"string"},{"name":"checkDeprecatedwUSDM","type":"bool","internalType":"bool"}],"outputs":[{"name":"","type":"tuple","internalType":"struct CometQuery.CometStateWithAccountState","components":[{"name":"baseAsset","type":"tuple","internalType":"struct CometQuery.BaseAssetWithAccountState","components":[{"name":"baseAsset","type":"address","internalType":"address"},{"name":"bulkerAllowance","type":"uint256","internalType":"uint256"},{"name":"allowance","type":"uint256","internalType":"uint256"},{"name":"balance","type":"int256","internalType":"int256"},{"name":"balanceOfComet","type":"uint256","internalType":"uint256"},{"name":"decimals","type":"uint256","internalType":"uint256"},{"name":"minBorrow","type":"uint256","internalType":"uint256"},{"name":"name","type":"string","internalType":"string"},{"name":"priceFeed","type":"address","internalType":"address"},{"name":"price","type":"uint256","internalType":"uint256"},{"name":"symbol","type":"string","internalType":"string"},{"name":"walletBalance","type":"uint256","internalType":"uint256"}]},{"name":"baseMinForRewards","type":"uint256","internalType":"uint256"},{"name":"baseTrackingBorrowSpeed","type":"uint256","internalType":"uint256"},{"name":"baseTrackingSupplySpeed","type":"uint256","internalType":"uint256"},{"name":"borrowAPR","type":"uint256","internalType":"uint256"},{"name":"bulkerAllowance","type":"uint256","internalType":"uint256"},{"name":"collateralAssets","type":"tuple[]","internalType":"struct CometQuery.CollateralAssetWithAccountState[]","components":[{"name":"collateralAsset","type":"address","internalType":"address"},{"name":"bulkerAllowance","type":"uint256","internalType":"uint256"},{"name":"allowance","type":"uint256","internalType":"uint256"},{"name":"balance","type":"uint256","internalType":"uint256"},{"name":"collateralFactor","type":"uint256","internalType":"uint256"},{"name":"decimals","type":"uint256","internalType":"uint256"},{"name":"name","type":"string","internalType":"string"},{"name":"liquidateCollateralFactor","type":"uint256","internalType":"uint256"},{"name":"liquidationFactor","type":"uint256","internalType":"uint256"},{"name":"price","type":"uint256","internalType":"uint256"},{"name":"priceFeed","type":"address","internalType":"address"},{"name":"supplyCap","type":"uint256","internalType":"uint256"},{"name":"symbol","type":"string","internalType":"string"},{"name":"totalSupply","type":"uint256","internalType":"uint256"},{"name":"walletBalance","type":"uint256","internalType":"uint256"}]},{"name":"earnAPR","type":"uint256","internalType":"uint256"},{"name":"nativeAssetInDollars","type":"uint256","internalType":"uint256"},{"name":"nativeAssetWalletBalance","type":"uint256","internalType":"uint256"},{"name":"totalBorrow","type":"uint256","internalType":"uint256"},{"name":"totalBorrowPrincipal","type":"uint256","internalType":"uint256"},{"name":"totalSupply","type":"uint256","internalType":"uint256"},{"name":"totalSupplyPrincipal","type":"uint256","internalType":"uint256"},{"name":"trackingIndexScale","type":"uint256","internalType":"uint256"}]}],"stateMutability":"view"}],"bytecode":{"object":"0x60808060405234601557612732908161001b8239f35b600080fdfe6101a0604052600436101561001357600080fd5b60003560e01c80635003c1b814610b6057806353c71bb414610a305780637f19f015146101ed578063d2cb8be8146100ad5763f8af99681461005457600080fd5b346100a85760603660031901126100a85761006d610c23565b60243560ff811681036100a8576100a4916100909161008a610d21565b916120a8565b604051918291602083526020830190610d30565b0390f35b600080fd5b346100a85760031960a0368201126100a8576100c7610c23565b906100d0610c39565b916044356001600160401b03928382116100a8576101609082360301126100a857604051906100fe82610e2b565b61010a81600401610c4f565b8252602481013560208301526044810135604083015260648101358481116100a85761013c9060043691840101610ebb565b60608301526084810135608083015260a481013560a083015260c481013560c083015261016b60e48201610c4f565b60e0830152610104810135610100830152610124810135908482116100a85761019d6101449260043691840101610ebb565b61012084015201356101408201526101b3610dc7565b906084359384116100a8576100a4946101d36101d9953690600401610ebb565b93611df0565b604051918291602083526020830190610f02565b346100a85760c03660031901126100a857610206610c23565b61020e610c39565b6044356001600160a01b03811690036100a857610229610dc7565b906084356001600160401b0381116100a857610249903690600401610ebb565b9060a435151560a435036100a8576103269060006101c060405161026c81610ddd565b60405161027881610e0f565b8381528360208201528360408201528360608201528360808201528360a08201528360c0820152606060e0820152836101008201528361012082015260606101408201528361016082015281528260208201528260408201528260608201528260808201528260a0820152606060c08201528260e08201528261010082015282610120820152826101408201528261016082015282610180820152826101a0820152015260a4359085611b5d565b6040516370a0823160e01b81526001600160a01b03604435811660048301529192916020908290602490829089165afa9081156108e1576000916109fe575b50604051630dd3126d60e21b81526001600160a01b0360443581166004830152909190602090839060249082908a165afa9182156108e1576000926109ca575b508351516040516370a0823160e01b81526001600160a01b0360443581166004830152909160209183916024918391165afa9081156108e157600091610998575b50916103f78460e087510151612695565b610984575b845151604051636eb1769f60e11b81526001600160a01b03604480358216600484015289821660248401529216939091602090839081875afa9182156108e15760009261094e575b50865151604051636eb1769f60e11b8152604480356001600160a01b039081166004840152808d16602484015291939260209285929116908290819081015b03915afa9182156108e15760009261091a575b506000841281858103128116908286810313901516176109045787519360e08501519560408601519160608701519360808801519560018060a01b0360a08a01511697602060c08b01519a0151946040516080526104f5608051610e0f565b608051526020608051015260406080510152036060608051015260808051015260a0608051015260c0608051015260e06080510152610100608051015261012060805101526101406080510152610160608051015260a0820151519161055a83611ab7565b926105686040519485610e7f565b808452610577601f1991611ab7565b0160005b8181106108ed57505060005b60a0820151805160ff831610156105e057906105ba846105db936105b26044359160ff861690611b33565b51898b611df0565b6105c760ff831687611b33565b526105d560ff821686611b33565b50611b22565b610587565b8685848860208201519361063860408401519460206060860151946080870151946040518080968194636eb1769f60e11b83526044356004840190602090939293604083019460018060a01b03809216845216910152565b03916001600160a01b03165afa9182156108e1576000926108ad575b5060c085015160e08601519060018060a01b0360443516319261010088015194610120890151966101408a0151986101806101608c01519b01519b604080519e8f9061069f82610ddd565b60805182526020820152015260608d015260808c015260a08b015260c08a015260e08901526101008801526101208701526101408601526101608501526101808401526101a08301526101c08201526040516020815281516101e0602083015260018060a01b03815116610200830152602081015161022083015260408101516102408301526060810151610260830152608081015161028083015260a08101516102a083015260c08101516102c08301526101606107ad61077360e08401516101806102e0870152610380860190610c86565b6101008401516001600160a01b03166103008601526101208401516103208601526101408401518582036101ff1901610340870152610c86565b910151610360830152602083015160408301526040830151606083015260608301516080830152608083015160a083015260a083015160c083015260c083015190601f198382030160e0840152815180825260208201916020808360051b8301019401926000915b838310610880578680876101c08b60e08101516101008501526101008101516101208501526101208101516101408501526101408101516101608501526101608101516101808501526101808101516101a08501526101a08101518285015201516101e08301520390f35b909192939460208061089e600193601f198682030187528951610f02565b97019301930191939290610815565b9091506020813d6020116108d9575b816108c960209383610e7f565b810103126100a857519087610654565b3d91506108bc565b6040513d6000823e3d90fd5b6020906108f8611d6b565b8282880101520161057b565b634e487b7160e01b600052601160045260246000fd5b9091506020813d602011610946575b8161093660209383610e7f565b810103126100a85751908a610496565b3d9150610929565b9091506020813d60201161097c575b8161096a60209383610e7f565b810103126100a8575190610483610444565b3d915061095d565b6044356001600160a01b03163192506103fc565b90506020813d6020116109c2575b816109b360209383610e7f565b810103126100a85751876103e6565b3d91506109a6565b9091506020813d6020116109f6575b816109e660209383610e7f565b810103126100a8575190866103a5565b3d91506109d9565b90506020813d602011610a28575b81610a1960209383610e7f565b810103126100a8575185610365565b3d9150610a0c565b346100a85760603660031901126100a857610a62610a4c610c23565b610a54610c39565b610a5c610d21565b91611b5d565b60405160208082528251610a836101a09182848601526101c0850190610cab565b918085015160408501526040850151606085015260608501516080850152608085015160a085015260a085015192601f1991828683030160c087015284519182815281810182808560051b8401019701946000925b858410610b325789808a8a8e60c081015160e085015260e081015161010090818601528101516101209081860152810151610140908186015281015161016090818601528101519061018091828601520151908301520390f35b909192939495978580610b4f838686600196030188528c51610d30565b9a0194019401929594939190610ad8565b346100a85760403660031901126100a857610b8a610b7c610c23565b610b84610c39565b906110b1565b6040518091602082528051610bad610180918260208601526101a0850190610cab565b91602081015160408501526040810151606085015260608101516080850152608081015160a085015260a081015160c085015260c081015160e085015260e08101516101009081860152810151610120908186015281015161014090818601528101519061016091828601520151908301520390f35b600435906001600160a01b03821682036100a857565b602435906001600160a01b03821682036100a857565b35906001600160a01b03821682036100a857565b60005b838110610c765750506000910152565b8181015183820152602001610c66565b90602091610c9f81518092818552858086019101610c63565b601f01601f1916010190565b610d1e9160e061010092610cf860018060a01b0394858351168552602083015160208601526040830151604086015260608301516060860152608083015190806080870152850190610c86565b9360a08201511660a084015260c081015160c084015201519060e0818403910152610c86565b90565b6044359081151582036100a857565b90610db9610160610d7060018060a01b03918286511685526020860151602086015260408601516040860152606086015190806060870152850190610c86565b906080850151608085015260a085015160a085015260c085015160c085015260e08501511660e08401526101008085015190840152610120808501519084830390850152610c86565b916101408091015191015290565b606435906001600160a01b03821682036100a857565b6101e081019081106001600160401b03821117610df957604052565b634e487b7160e01b600052604160045260246000fd5b61018081019081106001600160401b03821117610df957604052565b61016081019081106001600160401b03821117610df957604052565b61010081019081106001600160401b03821117610df957604052565b6101a081019081106001600160401b03821117610df957604052565b90601f801991011681019081106001600160401b03821117610df957604052565b6001600160401b038111610df957601f01601f191660200190565b81601f820112156100a857803590610ed282610ea0565b92610ee06040519485610e7f565b828452602083830101116100a857816000926020809301838601378301015290565b90610fad6101e0610f6060018060a01b03918286511685526020860151602086015260408601516040860152606086015160608601526080860151608086015260a086015160a086015260c0860151908060c0870152850190610c86565b9060e085015160e085015261010080860151908501526101208086015190850152610140908186015116908401526101608085015190840152610180808501519084830390850152610c86565b916101a080820151908301526101c08091015191015290565b60405190610fd382610e47565b606060e083600080825280602083015280604083015280848301528360808301528060a083015260c08201520152565b51906001600160a01b03821682036100a857565b51906001600160401b03821682036100a857565b51906cffffffffffffffffffffffffff821682036100a857565b519060ff821682036100a857565b6020818303126100a8578051906001600160401b0382116100a8570181601f820112156100a857805161108581610ea0565b926110936040519485610e7f565b818452602082840101116100a857610d1e9160208085019101610c63565b6101805260006101606040516110c681610e0f565b6110ce610fc6565b81528260208201528260408201528260608201528260808201528260a08201528260c08201528260e082015282610100820152826101208201528261014082015201526040519063c55dae6360e01b825260208260048160018060a01b0361018051165afa9182156108e157600092611a7b575b506040519163e7dad6bd60e01b835260208360048160018060a01b0361018051165afa9283156108e157600093611a3f575b506040519063300e6beb60e01b825260208260048160018060a01b0361018051165afa9182156108e157600092611a0b575b506040516355d3f8af60e11b815261018051602090829060049082906001600160a01b03165afa80156108e1576000610160526119d7575b506040519163189bb2f160e01b835260208360048160018060a01b0361018051165afa9283156108e1576000936119a3575b5060405193634f54cd2d60e11b855260208560048160018060a01b0361018051165afa9485156108e15760009561196f575b506040516349b270c560e11b815261018051602090829060049082906001600160a01b03165afa80156108e15760006101205261193b575b50604051637eb7113160e01b815261018051602090829060049082906001600160a01b03165afa9081156108e157600091611909575b506040516341976e0960e01b81526001600160a01b03928316600482015261018051909260209184916024918391165afa9182156108e1576000926118d5575b50604051946318160ddd60e01b865260208660048160018060a01b0361018051165afa9586156108e1576000966118a1575b506040519363020a17bd60e61b855260208560048160018060a01b0361018051165afa9485156108e15760009561186d575b506040519563b9f0baf760e01b87526101008760048160018060a01b0361018051165afa9687156108e1576000976117a1575b5060405199634fd41dad60e11b8b528460048c015260208b60248160018060a01b0361018051165afa9a8b156108e15760009b611765575b506040519463d955759d60e01b8652600486015260208560248160018060a01b0361018051165afa9485156108e157600095611729575b506040516395d89b4160e01b8152926000846004816001600160a01b0387165afa9384156108e15760009461170c575b5060405163313ce56760e01b81526020816004816001600160a01b0388165afa80156108e157600060a0526116d9575b506040516306fdde0360e01b8152906000826004816001600160a01b0388165afa9182156108e1576000926116b4575b506040516341976e0960e01b81526001600160a01b0384811660048301526101805191959160209187916024918391165afa9485156108e157600095611680575b506040516101408181526370a0823160e01b9091526101805181516001600160a01b039182166004909101529051602091602490829085165afa6101005261010051156108e157600060e05261010051611644575b60405160c05261152d60c051610e47565b60018060a01b031660c0515260e051602060c051015260a051604060c0510152606060c0510152608060c051015260018060a01b031660a060c051015260c08051015260e060c05101526301e13380916001600160401b038916836001600160401b038b16020483146001600160401b038a16151715610904576001600160401b03811683810281900484149015171561090457826001600160401b0360409a81946cffffffffffffffffffffffffff60808160a08d0151169b0151169b8d519d8e6115f881610e0f565b60c0518152610120516020820152015260608d0152160260808a0152160260a087015260c086015260e08501526101008401526101208301526101408201526101605161016082015290565b60203d602011611679575b8061165f60209261014051610e7f565b6101405190810103126100a857610140515160e05261151c565b503d61164f565b9094506020813d6020116116ac575b8161169c60209383610e7f565b810103126100a8575193386114c7565b3d915061168f565b6116d29192503d806000833e6116ca8183610e7f565b810190611053565b9038611486565b6020813d602011611704575b816116f260209383610e7f565b810103126100a8575160a05238611456565b3d91506116e5565b6117229194503d806000833e6116ca8183610e7f565b9238611426565b9094506020813d60201161175d575b8161174560209383610e7f565b810103126100a85761175690611017565b93386113f6565b3d9150611738565b909a506020813d602011611799575b8161178160209383610e7f565b810103126100a85761179290611017565b99386113bf565b3d9150611774565b909650610100813d61010011611865575b816117c06101009383610e7f565b810103126100a857604051906117d582610e47565b6117de81611017565b82526117ec60208201611017565b60208301526117fd60408201611017565b604083015261180e60608201611017565b606083015261181f6080820161102b565b608083015261183060a0820161102b565b60a083015260c081015164ffffffffff811681036100a85760c08301526118599060e001611045565b60e08201529538611387565b3d91506117b2565b9094506020813d602011611899575b8161188960209383610e7f565b810103126100a857519338611354565b3d915061187c565b9095506020813d6020116118cd575b816118bd60209383610e7f565b810103126100a857519438611322565b3d91506118b0565b9091506020813d602011611901575b816118f160209383610e7f565b810103126100a8575190386112f0565b3d91506118e4565b90506020813d602011611933575b8161192460209383610e7f565b810103126100a85751386112b0565b3d9150611917565b6020813d602011611967575b8161195460209383610e7f565b810103126100a85751610120523861127a565b3d9150611947565b9094506020813d60201161199b575b8161198b60209383610e7f565b810103126100a857519338611242565b3d915061197e565b9092506020813d6020116119cf575b816119bf60209383610e7f565b810103126100a857519138611210565b3d91506119b2565b6020813d602011611a03575b816119f060209383610e7f565b810103126100a8575161016052386111de565b3d91506119e3565b9091506020813d602011611a37575b81611a2760209383610e7f565b810103126100a8575190386111a6565b3d9150611a1a565b9092506020813d602011611a73575b81611a5b60209383610e7f565b810103126100a857611a6c90611003565b9138611174565b3d9150611a4e565b9091506020813d602011611aaf575b81611a9760209383610e7f565b810103126100a857611aa890611003565b9038611142565b3d9150611a8a565b6001600160401b038111610df95760051b60200190565b60405190611adb82610e2b565b816101406000918281528260208201528260408201526060808201528260808201528260a08201528260c08201528260e08201528261010082015260606101208201520152565b60ff1660ff81146109045760010190565b8051821015611b475760209160051b010190565b634e487b7160e01b600052603260045260246000fd5b9290611bcd906000610180604051611b7481610e63565b611b7c610fc6565b8152826020820152826040820152826060820152826080820152606060a08201528260c08201528260e0820152826101008201528261012082015282610140820152826101608201520152846110b1565b60405163a46fe83b60e01b8152939092906020856004816001600160a01b0385165afa9485156108e157600095611d2f575b50611c0c60ff8616611ab7565b92611c1a6040519485610e7f565b60ff8616808552601f1990611c2e90611ab7565b0160005b818110611d1857505060005b60ff811660ff8816811015611c7657906105d5611c7192611c608784886120a8565b611c6a828a611b33565b5287611b33565b611c3e565b505094505050611cd29180519160208201519060408301519060608401519060808501519060a08601519060c08701519260e088015194610100890151966101208a0151986101606101408c01519b01519b6040519d8e610e63565b8d5260208d015260408c015260608b015260808a015260a089015260c088015260e087015261010086015261012085015261014084015261016083015261018082015290565b602090611d23611ace565b82828901015201611c32565b9094506020813d602011611d63575b81611d4b60209383610e7f565b810103126100a857611d5c90611045565b9338611bff565b3d9150611d3e565b60405190611d7882610ddd565b816101c06000918281528260208201528260408201528260608201528260808201528260a0820152606060c08201528260e0820152826101008201528261012082015282610140820152826101608201526060610180820152826101a08201520152565b51906001600160801b03821682036100a857565b92919093611dfc611d6b565b5060018060a01b039384835116946040516370a0823160e01b8152602081602481858a169a8b60048301525afa9081156108e157600091612076575b5095611e4a6101208601948551612695565b61206d575b508351604051636eb1769f60e11b8082526001600160a01b0388811660048401529990991660248201529790821695906020896044818a5afa9889156108e157600099612039575b5085516040519182526001600160a01b03838116600484015294841694851660248301529093906020908590604490829087165afa9384156108e157600094612003575b508551604051632e12a4f760e11b81526001600160a01b039384166004820152908416909216602483015260209082908180604481015b03915afa9081156108e157600091611fc9575b5060208501519060408601519060808701519160a08801519360608901519260c08a01519660e08b015116976101008b015199519a61014001519b6040519e8f91611f6f83610ddd565b82526020820152604001526001600160801b031660608d015260808c015260a08b015260c08a015260e08901526101008801526101208701526101408601526101608501526101808401526101a08301526101c082015290565b90506020813d602011611ffb575b81611fe460209383610e7f565b810103126100a857611ff590611ddc565b38611f25565b3d9150611fd7565b9093506020813d602011612031575b8161201f60209383610e7f565b810103126100a8575192611f12611edb565b3d9150612012565b9098506020813d602011612065575b8161205560209383610e7f565b810103126100a857519738611e97565b3d9150612048565b31955038611e4f565b90506020813d6020116120a0575b8161209160209383610e7f565b810103126100a8575138611e38565b3d9150612084565b9190916120b3611ace565b5060405163c8c7fe6b60e01b815260ff9390931660048401526001600160a01b0391610100846024818587165afa9384156108e1576000946125ce575b5080612539575b156122e057602083019082825116936001600160401b03806080830151169060405163313ce56760e01b81526020816004818b5afa80156108e1576000906122ad575b600491508260a0860151169260c08601511693600089895116604051948580926306fdde0360e01b82525afa9283156108e157600093612290575b506001600160801b0360e08a6040890151169701511696600460008b8b5116604051928380926395d89b4160e01b82525afa998a156108e1578b9160009b612269575b50516040516359e017bd60e01b815291166004820152996020918b916024918391165afa9889156108e157600099612235575b50604051996121f98b610e2b565b8a5260208a015260408901526060880152608087015260a0860152600060c086015260e085015261010084015261012083015261014082015290565b9098506020813d602011612261575b8161225160209383610e7f565b810103126100a8575197386121eb565b3d9150612244565b6024919b5091612286602094933d806000833e6116ca8183610e7f565b9b915091926121b8565b6122a69193503d806000833e6116ca8183610e7f565b9138612175565b506020813d6020116122d8575b816122c760209383610e7f565b810103126100a8576004905161213a565b3d91506122ba565b602083019082825116936001600160401b0380608083015116906040519063313ce56760e01b82526020826004818b5afa9182156108e157600092612505575b5060048160a0860151169160c08601511692600089895116604051938480926306fdde0360e01b82525afa9182156108e1576000926124e8575b506040868101805191516341976e0960e01b8152918b16600483015295906020816024818c8f165afa9687156108e1578b916000986124aa575b506001600160801b039160e09151169801511697600460008c8c5116604051928380926395d89b4160e01b82525afa9a8b156108e1578c9160009c612483575b50516040516359e017bd60e01b8152911660048201529a6020918c916024918391165afa998a156108e15760009a61244f575b506040519a6124158c610e2b565b8b5260208b015260408a01526060890152608088015260a087015260c086015260e085015261010084015261012083015261014082015290565b9099506020813d60201161247b575b8161246b60209383610e7f565b810103126100a857519838612407565b3d915061245e565b6024919c50916124a0602094933d806000833e6116ca8183610e7f565b9c915091926123d4565b915096506020813d6020116124e0575b816124c760209383610e7f565b810103126100a85751958a906001600160801b03612394565b3d91506124ba565b6124fe9192503d806000833e6116ca8183610e7f565b903861235a565b9091506020813d602011612531575b8161252160209383610e7f565b810103126100a857519038612320565b3d9150612514565b50816040840151168073e3a409ed15cd53afdefdd191ad945cec528a2496149081156125b0575b8115612592575b8115612574575b506120f7565b9050737e86318cc4bc539043f204b39ce0ebed9f0050dc143861256e565b7366228d797eb83ecf3465297751f6b1d4d42b762781149150612567565b7313cdfb7db5e2f58e122b2e789b59de13645349c481149150612560565b9093610100823d6101001161268d575b816125ec6101009383610e7f565b8101031261268a575061267e60e06040519261260784610e47565b61261081611045565b845261261e60208201611003565b602085015261262f60408201611003565b604085015261264060608201611017565b606085015261265160808201611017565b608085015261266260a08201611017565b60a085015261267360c08201611017565b60c085015201611ddc565b60e082015292386120f0565b80fd5b3d91506125de565b908151815181036126f4576126c0926126cd6040519182846020978896879485850198899101610c63565b8101038084520182610e7f565b519020916126ed6040519182816126c08183019687815193849201610c63565b5190201490565b50505060009056fea2646970667358221220546718f8b88785adbcd8a0449ab135f19dc81aa788311f8433a59e228c6d19bc64736f6c63430008190033","linkReferences":{}},"methodIdentifiers":{"collateralInfo(address,uint8,bool)":"f8af9968","collateralInfoWithAccount(address,address,(address,uint256,uint256,string,uint256,uint256,uint256,address,uint256,string,uint256),address,string)":"d2cb8be8","cometStateMinusCollateralInfo(address,address)":"5003c1b8","query(address,address,bool)":"53c71bb4","queryWithAccount(address,address,address,address,string,bool)":"7f19f015"},"id":17}